{
	"contracts/11_For_While_Loop.sol": {
		"Loop": {
			"abi": [
				{
					"inputs": [],
					"name": "WhileU",
					"outputs": [
						{
							"internalType": "uint256",
							"name": "",
							"type": "uint256"
						}
					],
					"stateMutability": "view",
					"type": "function"
				},
				{
					"inputs": [],
					"name": "forU",
					"outputs": [
						{
							"internalType": "uint256",
							"name": "",
							"type": "uint256"
						}
					],
					"stateMutability": "view",
					"type": "function"
				},
				{
					"inputs": [],
					"name": "loop",
					"outputs": [],
					"stateMutability": "nonpayable",
					"type": "function"
				}
			],
			"devdoc": {
				"kind": "dev",
				"methods": {},
				"version": 1
			},
			"evm": {
				"assembly": "    /* \"contracts/11_For_While_Loop.sol\":58:635  contract Loop {... */\n  mstore(0x40, 0x80)\n    /* \"contracts/11_For_While_Loop.sol\":100:101  0 */\n  0x00\n    /* \"contracts/11_For_While_Loop.sol\":78:101  uint256 public forU = 0 */\n  dup1\n  sstore\n    /* \"contracts/11_For_While_Loop.sol\":131:132  0 */\n  0x00\n    /* \"contracts/11_For_While_Loop.sol\":107:132  uint256 public WhileU = 0 */\n  0x01\n  sstore\n    /* \"contracts/11_For_While_Loop.sol\":58:635  contract Loop {... */\n  callvalue\n  dup1\n  iszero\n  tag_1\n  jumpi\n  0x00\n  dup1\n  revert\ntag_1:\n  pop\n  dataSize(sub_0)\n  dup1\n  dataOffset(sub_0)\n  0x00\n  codecopy\n  0x00\n  return\nstop\n\nsub_0: assembly {\n        /* \"contracts/11_For_While_Loop.sol\":58:635  contract Loop {... */\n      mstore(0x40, 0x80)\n      callvalue\n      dup1\n      iszero\n      tag_1\n      jumpi\n      0x00\n      dup1\n      revert\n    tag_1:\n      pop\n      jumpi(tag_2, lt(calldatasize, 0x04))\n      shr(0xe0, calldataload(0x00))\n      dup1\n      0x2166da83\n      eq\n      tag_3\n      jumpi\n      dup1\n      0xa92100cb\n      eq\n      tag_4\n      jumpi\n      dup1\n      0xe452d146\n      eq\n      tag_5\n      jumpi\n    tag_2:\n      0x00\n      dup1\n      revert\n        /* \"contracts/11_For_While_Loop.sol\":107:132  uint256 public WhileU = 0 */\n    tag_3:\n      tag_6\n      tag_7\n      jump\t// in\n    tag_6:\n      mload(0x40)\n      tag_8\n      swap2\n      swap1\n      tag_9\n      jump\t// in\n    tag_8:\n      mload(0x40)\n      dup1\n      swap2\n      sub\n      swap1\n      return\n        /* \"contracts/11_For_While_Loop.sol\":139:633  function loop() public {... */\n    tag_4:\n      tag_10\n      tag_11\n      jump\t// in\n    tag_10:\n      stop\n        /* \"contracts/11_For_While_Loop.sol\":78:101  uint256 public forU = 0 */\n    tag_5:\n      tag_12\n      tag_13\n      jump\t// in\n    tag_12:\n      mload(0x40)\n      tag_14\n      swap2\n      swap1\n      tag_9\n      jump\t// in\n    tag_14:\n      mload(0x40)\n      dup1\n      swap2\n      sub\n      swap1\n      return\n        /* \"contracts/11_For_While_Loop.sol\":107:132  uint256 public WhileU = 0 */\n    tag_7:\n      sload(0x01)\n      dup2\n      jump\t// out\n        /* \"contracts/11_For_While_Loop.sol\":139:633  function loop() public {... */\n    tag_11:\n        /* \"contracts/11_For_While_Loop.sol\":197:206  uint256 i */\n      0x00\n        /* \"contracts/11_For_While_Loop.sol\":192:513  for (uint256 i = 0; i < 10; i++) {... */\n    tag_16:\n        /* \"contracts/11_For_While_Loop.sol\":216:218  10 */\n      0x0a\n        /* \"contracts/11_For_While_Loop.sol\":212:213  i */\n      dup2\n        /* \"contracts/11_For_While_Loop.sol\":212:218  i < 10 */\n      lt\n        /* \"contracts/11_For_While_Loop.sol\":192:513  for (uint256 i = 0; i < 10; i++) {... */\n      iszero\n      tag_17\n      jumpi\n        /* \"contracts/11_For_While_Loop.sol\":248:249  3 */\n      0x03\n        /* \"contracts/11_For_While_Loop.sol\":243:244  i */\n      dup2\n        /* \"contracts/11_For_While_Loop.sol\":243:249  i == 3 */\n      sub\n        /* \"contracts/11_For_While_Loop.sol\":239:374  if (i == 3) {... */\n      tag_19\n      jumpi\n        /* \"contracts/11_For_While_Loop.sol\":276:277  i */\n      dup1\n        /* \"contracts/11_For_While_Loop.sol\":269:273  forU */\n      0x00\n        /* \"contracts/11_For_While_Loop.sol\":269:277  forU = i */\n      dup2\n      swap1\n      sstore\n      pop\n        /* \"contracts/11_For_While_Loop.sol\":351:359  continue */\n      jump(tag_18)\n        /* \"contracts/11_For_While_Loop.sol\":239:374  if (i == 3) {... */\n    tag_19:\n        /* \"contracts/11_For_While_Loop.sol\":396:397  5 */\n      0x05\n        /* \"contracts/11_For_While_Loop.sol\":391:392  i */\n      dup2\n        /* \"contracts/11_For_While_Loop.sol\":391:397  i == 5 */\n      sub\n        /* \"contracts/11_For_While_Loop.sol\":387:503  if (i == 5) {... */\n      tag_20\n      jumpi\n        /* \"contracts/11_For_While_Loop.sol\":424:425  i */\n      dup1\n        /* \"contracts/11_For_While_Loop.sol\":417:421  forU */\n      0x00\n        /* \"contracts/11_For_While_Loop.sol\":417:425  forU = i */\n      dup2\n      swap1\n      sstore\n      pop\n        /* \"contracts/11_For_While_Loop.sol\":483:488  break */\n      jump(tag_17)\n        /* \"contracts/11_For_While_Loop.sol\":387:503  if (i == 5) {... */\n    tag_20:\n        /* \"contracts/11_For_While_Loop.sol\":192:513  for (uint256 i = 0; i < 10; i++) {... */\n    tag_18:\n        /* \"contracts/11_For_While_Loop.sol\":220:223  i++ */\n      dup1\n      dup1\n      0x01\n      add\n      swap2\n      pop\n      pop\n        /* \"contracts/11_For_While_Loop.sol\":192:513  for (uint256 i = 0; i < 10; i++) {... */\n      jump(tag_16)\n    tag_17:\n      pop\n        /* \"contracts/11_For_While_Loop.sol\":545:554  uint256 j */\n      0x00\n        /* \"contracts/11_For_While_Loop.sol\":564:607  while (j < 10) {... */\n    tag_21:\n        /* \"contracts/11_For_While_Loop.sol\":575:577  10 */\n      0x0a\n        /* \"contracts/11_For_While_Loop.sol\":571:572  j */\n      dup2\n        /* \"contracts/11_For_While_Loop.sol\":571:577  j < 10 */\n      lt\n        /* \"contracts/11_For_While_Loop.sol\":564:607  while (j < 10) {... */\n      iszero\n      tag_22\n      jumpi\n        /* \"contracts/11_For_While_Loop.sol\":593:596  j++ */\n      dup1\n      dup1\n      tag_23\n      swap1\n      tag_24\n      jump\t// in\n    tag_23:\n      swap2\n      pop\n      pop\n        /* \"contracts/11_For_While_Loop.sol\":564:607  while (j < 10) {... */\n      jump(tag_21)\n    tag_22:\n        /* \"contracts/11_For_While_Loop.sol\":625:626  j */\n      dup1\n        /* \"contracts/11_For_While_Loop.sol\":616:622  WhileU */\n      0x01\n        /* \"contracts/11_For_While_Loop.sol\":616:626  WhileU = j */\n      dup2\n      swap1\n      sstore\n      pop\n        /* \"contracts/11_For_While_Loop.sol\":162:633  {... */\n      pop\n        /* \"contracts/11_For_While_Loop.sol\":139:633  function loop() public {... */\n      jump\t// out\n        /* \"contracts/11_For_While_Loop.sol\":78:101  uint256 public forU = 0 */\n    tag_13:\n      sload(0x00)\n      dup2\n      jump\t// out\n        /* \"#utility.yul\":7:84   */\n    tag_25:\n        /* \"#utility.yul\":44:51   */\n      0x00\n        /* \"#utility.yul\":73:78   */\n      dup2\n        /* \"#utility.yul\":62:78   */\n      swap1\n      pop\n        /* \"#utility.yul\":7:84   */\n      swap2\n      swap1\n      pop\n      jump\t// out\n        /* \"#utility.yul\":90:208   */\n    tag_26:\n        /* \"#utility.yul\":177:201   */\n      tag_31\n        /* \"#utility.yul\":195:200   */\n      dup2\n        /* \"#utility.yul\":177:201   */\n      tag_25\n      jump\t// in\n    tag_31:\n        /* \"#utility.yul\":172:175   */\n      dup3\n        /* \"#utility.yul\":165:202   */\n      mstore\n        /* \"#utility.yul\":90:208   */\n      pop\n      pop\n      jump\t// out\n        /* \"#utility.yul\":214:436   */\n    tag_9:\n        /* \"#utility.yul\":307:311   */\n      0x00\n        /* \"#utility.yul\":345:347   */\n      0x20\n        /* \"#utility.yul\":334:343   */\n      dup3\n        /* \"#utility.yul\":330:348   */\n      add\n        /* \"#utility.yul\":322:348   */\n      swap1\n      pop\n        /* \"#utility.yul\":358:429   */\n      tag_33\n        /* \"#utility.yul\":426:427   */\n      0x00\n        /* \"#utility.yul\":415:424   */\n      dup4\n        /* \"#utility.yul\":411:428   */\n      add\n        /* \"#utility.yul\":402:408   */\n      dup5\n        /* \"#utility.yul\":358:429   */\n      tag_26\n      jump\t// in\n    tag_33:\n        /* \"#utility.yul\":214:436   */\n      swap3\n      swap2\n      pop\n      pop\n      jump\t// out\n        /* \"#utility.yul\":442:622   */\n    tag_27:\n        /* \"#utility.yul\":490:567   */\n      0x4e487b7100000000000000000000000000000000000000000000000000000000\n        /* \"#utility.yul\":487:488   */\n      0x00\n        /* \"#utility.yul\":480:568   */\n      mstore\n        /* \"#utility.yul\":587:591   */\n      0x11\n        /* \"#utility.yul\":584:585   */\n      0x04\n        /* \"#utility.yul\":577:592   */\n      mstore\n        /* \"#utility.yul\":611:615   */\n      0x24\n        /* \"#utility.yul\":608:609   */\n      0x00\n        /* \"#utility.yul\":601:616   */\n      revert\n        /* \"#utility.yul\":628:861   */\n    tag_24:\n        /* \"#utility.yul\":667:670   */\n      0x00\n        /* \"#utility.yul\":690:714   */\n      tag_36\n        /* \"#utility.yul\":708:713   */\n      dup3\n        /* \"#utility.yul\":690:714   */\n      tag_25\n      jump\t// in\n    tag_36:\n        /* \"#utility.yul\":681:714   */\n      swap2\n      pop\n        /* \"#utility.yul\":736:802   */\n      0xffffffffffffffffffffffffffffffffffffffffffffffffffffffffffffffff\n        /* \"#utility.yul\":729:734   */\n      dup3\n        /* \"#utility.yul\":726:803   */\n      sub\n        /* \"#utility.yul\":723:826   */\n      tag_37\n      jumpi\n        /* \"#utility.yul\":806:824   */\n      tag_38\n      tag_27\n      jump\t// in\n    tag_38:\n        /* \"#utility.yul\":723:826   */\n    tag_37:\n        /* \"#utility.yul\":853:854   */\n      0x01\n        /* \"#utility.yul\":846:851   */\n      dup3\n        /* \"#utility.yul\":842:855   */\n      add\n        /* \"#utility.yul\":835:855   */\n      swap1\n      pop\n        /* \"#utility.yul\":628:861   */\n      swap2\n      swap1\n      pop\n      jump\t// out\n\n    auxdata: 0xa2646970667358221220bbb89aa78093313ee502d2b14631f2f3317fa1828b1260a0e75a473c08cf19b064736f6c634300081a0033\n}\n",
				"bytecode": {
					"linkReferences": {},
					"object": "60806040525f80555f6001553480156015575f80fd5b506101d7806100235f395ff3fe608060405234801561000f575f80fd5b506004361061003f575f3560e01c80632166da8314610043578063a92100cb14610061578063e452d1461461006b575b5f80fd5b61004b610089565b6040516100589190610114565b60405180910390f35b61006961008f565b005b6100736100f7565b6040516100809190610114565b60405180910390f35b60015481565b5f5b600a8110156100ce57600381036100ad57805f819055506100c1565b600581036100c057805f819055506100ce565b5b8080600101915050610091565b505f5b600a8110156100ed5780806100e59061015a565b9150506100d1565b8060018190555050565b5f5481565b5f819050919050565b61010e816100fc565b82525050565b5f6020820190506101275f830184610105565b92915050565b7f4e487b71000000000000000000000000000000000000000000000000000000005f52601160045260245ffd5b5f610164826100fc565b91507fffffffffffffffffffffffffffffffffffffffffffffffffffffffffffffffff82036101965761019561012d565b5b60018201905091905056fea2646970667358221220bbb89aa78093313ee502d2b14631f2f3317fa1828b1260a0e75a473c08cf19b064736f6c634300081a0033",
					"opcodes": "PUSH1 0x80 PUSH1 0x40 MSTORE PUSH0 DUP1 SSTORE PUSH0 PUSH1 0x1 SSTORE CALLVALUE DUP1 ISZERO PUSH1 0x15 JUMPI PUSH0 DUP1 REVERT JUMPDEST POP PUSH2 0x1D7 DUP1 PUSH2 0x23 PUSH0 CODECOPY PUSH0 RETURN INVALID PUSH1 0x80 PUSH1 0x40 MSTORE CALLVALUE DUP1 ISZERO PUSH2 0xF JUMPI PUSH0 DUP1 REVERT JUMPDEST POP PUSH1 0x4 CALLDATASIZE LT PUSH2 0x3F JUMPI PUSH0 CALLDATALOAD PUSH1 0xE0 SHR DUP1 PUSH4 0x2166DA83 EQ PUSH2 0x43 JUMPI DUP1 PUSH4 0xA92100CB EQ PUSH2 0x61 JUMPI DUP1 PUSH4 0xE452D146 EQ PUSH2 0x6B JUMPI JUMPDEST PUSH0 DUP1 REVERT JUMPDEST PUSH2 0x4B PUSH2 0x89 JUMP JUMPDEST PUSH1 0x40 MLOAD PUSH2 0x58 SWAP2 SWAP1 PUSH2 0x114 JUMP JUMPDEST PUSH1 0x40 MLOAD DUP1 SWAP2 SUB SWAP1 RETURN JUMPDEST PUSH2 0x69 PUSH2 0x8F JUMP JUMPDEST STOP JUMPDEST PUSH2 0x73 PUSH2 0xF7 JUMP JUMPDEST PUSH1 0x40 MLOAD PUSH2 0x80 SWAP2 SWAP1 PUSH2 0x114 JUMP JUMPDEST PUSH1 0x40 MLOAD DUP1 SWAP2 SUB SWAP1 RETURN JUMPDEST PUSH1 0x1 SLOAD DUP2 JUMP JUMPDEST PUSH0 JUMPDEST PUSH1 0xA DUP2 LT ISZERO PUSH2 0xCE JUMPI PUSH1 0x3 DUP2 SUB PUSH2 0xAD JUMPI DUP1 PUSH0 DUP2 SWAP1 SSTORE POP PUSH2 0xC1 JUMP JUMPDEST PUSH1 0x5 DUP2 SUB PUSH2 0xC0 JUMPI DUP1 PUSH0 DUP2 SWAP1 SSTORE POP PUSH2 0xCE JUMP JUMPDEST JUMPDEST DUP1 DUP1 PUSH1 0x1 ADD SWAP2 POP POP PUSH2 0x91 JUMP JUMPDEST POP PUSH0 JUMPDEST PUSH1 0xA DUP2 LT ISZERO PUSH2 0xED JUMPI DUP1 DUP1 PUSH2 0xE5 SWAP1 PUSH2 0x15A JUMP JUMPDEST SWAP2 POP POP PUSH2 0xD1 JUMP JUMPDEST DUP1 PUSH1 0x1 DUP2 SWAP1 SSTORE POP POP JUMP JUMPDEST PUSH0 SLOAD DUP2 JUMP JUMPDEST PUSH0 DUP2 SWAP1 POP SWAP2 SWAP1 POP JUMP JUMPDEST PUSH2 0x10E DUP2 PUSH2 0xFC JUMP JUMPDEST DUP3 MSTORE POP POP JUMP JUMPDEST PUSH0 PUSH1 0x20 DUP3 ADD SWAP1 POP PUSH2 0x127 PUSH0 DUP4 ADD DUP5 PUSH2 0x105 JUMP JUMPDEST SWAP3 SWAP2 POP POP JUMP JUMPDEST PUSH32 0x4E487B7100000000000000000000000000000000000000000000000000000000 PUSH0 MSTORE PUSH1 0x11 PUSH1 0x4 MSTORE PUSH1 0x24 PUSH0 REVERT JUMPDEST PUSH0 PUSH2 0x164 DUP3 PUSH2 0xFC JUMP JUMPDEST SWAP2 POP PUSH32 0xFFFFFFFFFFFFFFFFFFFFFFFFFFFFFFFFFFFFFFFFFFFFFFFFFFFFFFFFFFFFFFFF DUP3 SUB PUSH2 0x196 JUMPI PUSH2 0x195 PUSH2 0x12D JUMP JUMPDEST JUMPDEST PUSH1 0x1 DUP3 ADD SWAP1 POP SWAP2 SWAP1 POP JUMP INVALID LOG2 PUSH5 0x6970667358 0x22 SLT KECCAK256 0xBB 0xB8 SWAP11 0xA7 DUP1 SWAP4 BALANCE RETURNDATACOPY 0xE5 MUL 0xD2 0xB1 CHAINID BALANCE CALLCODE RETURN BALANCE PUSH32 0xA1828B1260A0E75A473C08CF19B064736F6C634300081A003300000000000000 "
				},
				"gasEstimates": {
					"creation": {
						"codeDepositCost": "94200",
						"executionCost": "10149",
						"totalCost": "104349"
					},
					"external": {
						"WhileU()": "2403",
						"forU()": "2446",
						"loop()": "infinite"
					}
				},
				"methodIdentifiers": {
					"WhileU()": "2166da83",
					"forU()": "e452d146",
					"loop()": "a92100cb"
				}
			},
			"storageLayout": {
				"storage": [
					{
						"astId": 4,
						"contract": "contracts/11_For_While_Loop.sol:Loop",
						"label": "forU",
						"offset": 0,
						"slot": "0",
						"type": "t_uint256"
					},
					{
						"astId": 7,
						"contract": "contracts/11_For_While_Loop.sol:Loop",
						"label": "WhileU",
						"offset": 0,
						"slot": "1",
						"type": "t_uint256"
					}
				],
				"types": {
					"t_uint256": {
						"encoding": "inplace",
						"label": "uint256",
						"numberOfBytes": "32"
					}
				}
			},
			"userdoc": {
				"kind": "user",
				"methods": {},
				"version": 1
			}
		}
	}
}